{
  "_format": "hh-sol-artifact-1",
  "contractName": "UrukLottery",
  "sourceName": "contracts/UrukLottery.sol",
  "abi": [
    {
      "inputs": [
        {
          "internalType": "address",
          "name": "_uruk",
          "type": "address"
        },
        {
          "internalType": "address",
          "name": "_devWallet",
          "type": "address"
        },
        {
          "internalType": "uint8",
          "name": "_decimals",
          "type": "uint8"
        }
      ],
      "stateMutability": "nonpayable",
      "type": "constructor"
    },
    {
      "inputs": [
        {
          "internalType": "address",
          "name": "owner",
          "type": "address"
        }
      ],
      "name": "OwnableInvalidOwner",
      "type": "error"
    },
    {
      "inputs": [
        {
          "internalType": "address",
          "name": "account",
          "type": "address"
        }
      ],
      "name": "OwnableUnauthorizedAccount",
      "type": "error"
    },
    {
      "inputs": [],
      "name": "ReentrancyGuardReentrantCall",
      "type": "error"
    },
    {
      "inputs": [
        {
          "internalType": "address",
          "name": "token",
          "type": "address"
        }
      ],
      "name": "SafeERC20FailedOperation",
      "type": "error"
    },
    {
      "anonymous": false,
      "inputs": [
        {
          "indexed": true,
          "internalType": "address",
          "name": "previousOwner",
          "type": "address"
        },
        {
          "indexed": true,
          "internalType": "address",
          "name": "newOwner",
          "type": "address"
        }
      ],
      "name": "OwnershipTransferred",
      "type": "event"
    },
    {
      "anonymous": false,
      "inputs": [
        {
          "indexed": true,
          "internalType": "uint256",
          "name": "rid",
          "type": "uint256"
        },
        {
          "indexed": true,
          "internalType": "address",
          "name": "player",
          "type": "address"
        },
        {
          "indexed": false,
          "internalType": "uint256",
          "name": "tickets",
          "type": "uint256"
        },
        {
          "indexed": false,
          "internalType": "uint256",
          "name": "paid",
          "type": "uint256"
        }
      ],
      "name": "TicketPurchased",
      "type": "event"
    },
    {
      "anonymous": false,
      "inputs": [
        {
          "indexed": true,
          "internalType": "uint256",
          "name": "rid",
          "type": "uint256"
        },
        {
          "indexed": true,
          "internalType": "address",
          "name": "winner",
          "type": "address"
        },
        {
          "indexed": false,
          "internalType": "uint256",
          "name": "prize",
          "type": "uint256"
        },
        {
          "indexed": false,
          "internalType": "uint256",
          "name": "devFee",
          "type": "uint256"
        }
      ],
      "name": "WinnerSelected",
      "type": "event"
    },
    {
      "inputs": [],
      "name": "BPS_DENOM",
      "outputs": [
        {
          "internalType": "uint256",
          "name": "",
          "type": "uint256"
        }
      ],
      "stateMutability": "view",
      "type": "function"
    },
    {
      "inputs": [],
      "name": "DEV_FEE_BPS",
      "outputs": [
        {
          "internalType": "uint256",
          "name": "",
          "type": "uint256"
        }
      ],
      "stateMutability": "view",
      "type": "function"
    },
    {
      "inputs": [
        {
          "internalType": "uint256",
          "name": "roundId",
          "type": "uint256"
        },
        {
          "internalType": "uint256",
          "name": "ticketCount",
          "type": "uint256"
        }
      ],
      "name": "buyTickets",
      "outputs": [],
      "stateMutability": "nonpayable",
      "type": "function"
    },
    {
      "inputs": [],
      "name": "decimals",
      "outputs": [
        {
          "internalType": "uint8",
          "name": "",
          "type": "uint8"
        }
      ],
      "stateMutability": "view",
      "type": "function"
    },
    {
      "inputs": [],
      "name": "devWallet",
      "outputs": [
        {
          "internalType": "address",
          "name": "",
          "type": "address"
        }
      ],
      "stateMutability": "view",
      "type": "function"
    },
    {
      "inputs": [
        {
          "internalType": "uint256",
          "name": "roundId",
          "type": "uint256"
        }
      ],
      "name": "draw",
      "outputs": [],
      "stateMutability": "nonpayable",
      "type": "function"
    },
    {
      "inputs": [
        {
          "internalType": "address",
          "name": "user",
          "type": "address"
        },
        {
          "internalType": "uint256",
          "name": "roundId",
          "type": "uint256"
        }
      ],
      "name": "getTicketsOf",
      "outputs": [
        {
          "internalType": "uint256",
          "name": "",
          "type": "uint256"
        }
      ],
      "stateMutability": "view",
      "type": "function"
    },
    {
      "inputs": [],
      "name": "owner",
      "outputs": [
        {
          "internalType": "address",
          "name": "",
          "type": "address"
        }
      ],
      "stateMutability": "view",
      "type": "function"
    },
    {
      "inputs": [],
      "name": "renounceOwnership",
      "outputs": [],
      "stateMutability": "nonpayable",
      "type": "function"
    },
    {
      "inputs": [
        {
          "internalType": "uint256",
          "name": "",
          "type": "uint256"
        }
      ],
      "name": "rounds",
      "outputs": [
        {
          "internalType": "uint256",
          "name": "pot",
          "type": "uint256"
        },
        {
          "internalType": "uint256",
          "name": "ticketCount",
          "type": "uint256"
        },
        {
          "internalType": "bool",
          "name": "completed",
          "type": "bool"
        },
        {
          "internalType": "address",
          "name": "winner",
          "type": "address"
        }
      ],
      "stateMutability": "view",
      "type": "function"
    },
    {
      "inputs": [
        {
          "internalType": "address",
          "name": "w",
          "type": "address"
        }
      ],
      "name": "setDevWallet",
      "outputs": [],
      "stateMutability": "nonpayable",
      "type": "function"
    },
    {
      "inputs": [],
      "name": "ticketUnit",
      "outputs": [
        {
          "internalType": "uint256",
          "name": "",
          "type": "uint256"
        }
      ],
      "stateMutability": "view",
      "type": "function"
    },
    {
      "inputs": [
        {
          "internalType": "address",
          "name": "newOwner",
          "type": "address"
        }
      ],
      "name": "transferOwnership",
      "outputs": [],
      "stateMutability": "nonpayable",
      "type": "function"
    },
    {
      "inputs": [],
      "name": "uruk",
      "outputs": [
        {
          "internalType": "contract IERC20Metadata",
          "name": "",
          "type": "address"
        }
      ],
      "stateMutability": "view",
      "type": "function"
    }
  ],
  "bytecode": "0x60e06040523480156200001157600080fd5b50604051620011cc380380620011cc83398101604081905262000034916200017d565b33806200005c57604051631e4fbdf760e01b8152600060048201526024015b60405180910390fd5b620000678162000110565b50600180556001600160a01b038316158015906200008d57506001600160a01b03821615155b620000c45760405162461bcd60e51b815260040162000053906020808252600490820152637a65726f60e01b604082015260600190565b6001600160a01b03831660805260ff811660c052620000e581600a620002e5565b60a05250600280546001600160a01b0319166001600160a01b039290921691909117905550620002fd565b600080546001600160a01b038381166001600160a01b0319831681178455604051919092169283917f8be0079c531659141344cd1fd0a4f28419497f9722a3daafe3b4186f6b6457e09190a35050565b80516001600160a01b03811681146200017857600080fd5b919050565b6000806000606084860312156200019357600080fd5b6200019e8462000160565b9250620001ae6020850162000160565b9150604084015160ff81168114620001c557600080fd5b809150509250925092565b634e487b7160e01b600052601160045260246000fd5b600181815b80851115620002275781600019048211156200020b576200020b620001d0565b808516156200021957918102915b93841c9390800290620001eb565b509250929050565b6000826200024057506001620002df565b816200024f57506000620002df565b8160018114620002685760028114620002735762000293565b6001915050620002df565b60ff841115620002875762000287620001d0565b50506001821b620002df565b5060208310610133831016604e8410600b8410161715620002b8575081810a620002df565b620002c48383620001e6565b8060001904821115620002db57620002db620001d0565b0290505b92915050565b6000620002f660ff8416836200022f565b9392505050565b60805160a05160c051610e836200034960003960006101090152600081816102b8015261071a01526000818161027e015281816105ad015281816105f2015261076a0152610e836000f3fe608060405234801561001057600080fd5b50600436106100ea5760003560e01c80638c65c81f1161008c578063a31ae82211610066578063a31ae82214610279578063c8183ea4146102a0578063dab24d31146102b3578063f2fde38b146102da57600080fd5b80638c65c81f1461018f5780638da5cb5b1461021a5780638ea5220f1461025957600080fd5b806351e671c9116100c857806351e671c9146101555780636637e38c1461016b578063715018a6146101745780638627df461461017c57600080fd5b80631f53ac02146100ef578063313ce567146101045780633b30414714610142575b600080fd5b6101026100fd366004610cd4565b6102ed565b005b61012b7f000000000000000000000000000000000000000000000000000000000000000081565b60405160ff90911681526020015b60405180910390f35b610102610150366004610cf6565b61035c565b61015d60fa81565b604051908152602001610139565b61015d61271081565b61010261068d565b61010261018a366004610d0f565b6106a1565b6101de61019d366004610cf6565b60036020526000908152604090208054600182015460029092015490919060ff811690610100900473ffffffffffffffffffffffffffffffffffffffff1684565b6040805194855260208501939093529015159183019190915273ffffffffffffffffffffffffffffffffffffffff166060820152608001610139565b60005473ffffffffffffffffffffffffffffffffffffffff165b60405173ffffffffffffffffffffffffffffffffffffffff9091168152602001610139565b6002546102349073ffffffffffffffffffffffffffffffffffffffff1681565b6102347f000000000000000000000000000000000000000000000000000000000000000081565b61015d6102ae366004610d31565b610923565b61015d7f000000000000000000000000000000000000000000000000000000000000000081565b6101026102e8366004610cd4565b6109c9565b6102f5610a2a565b73ffffffffffffffffffffffffffffffffffffffff811661031557600080fd5b600280547fffffffffffffffffffffffff00000000000000000000000000000000000000001673ffffffffffffffffffffffffffffffffffffffff92909216919091179055565b610364610a7d565b6000818152600360205260409020600281015460ff1615801561038b575060008160010154115b6103f6576040517f08c379a000000000000000000000000000000000000000000000000000000000815260206004820152600560248201527f737461746500000000000000000000000000000000000000000000000000000060448201526064015b60405180910390fd5b6000816001015460014361040a9190610d8a565b83546040805192406020840152820186905260608083019190915230901b7fffffffffffffffffffffffffffffffffffffffff0000000000000000000000001660808201526094016040516020818303038152906040528051906020012060001c6104759190610dcc565b6000848152600460205260408120919250908190815b8154811015610515578181815481106104a6576104a6610de0565b906000526020600020906002020160010154846104c39190610e0f565b93508385101561050d578181815481106104df576104df610de0565b600091825260209091206002909102015473ffffffffffffffffffffffffffffffffffffffff169250610515565b60010161048b565b5060028501805473ffffffffffffffffffffffffffffffffffffffff8416610100027fffffffffffffffffffffff0000000000000000000000000000000000000000009091161760011790558454600090612710906105769060fa90610e22565b6105809190610e39565b90506105d4838288600001546105969190610d8a565b73ffffffffffffffffffffffffffffffffffffffff7f0000000000000000000000000000000000000000000000000000000000000000169190610ac0565b60025461061b9073ffffffffffffffffffffffffffffffffffffffff7f00000000000000000000000000000000000000000000000000000000000000008116911683610ac0565b8273ffffffffffffffffffffffffffffffffffffffff16877f3d210d5ae36955ded2bdf69bd956eb075b7fd07362288c7df1797cd8eb1199bf8389600001546106649190610d8a565b60408051918252602082018690520160405180910390a350505050505061068a60018055565b50565b610695610a2a565b61069f6000610b46565b565b6106a9610a7d565b60008111610713576040517f08c379a000000000000000000000000000000000000000000000000000000000815260206004820152600860248201527f7469636b6574203000000000000000000000000000000000000000000000000060448201526064016103ed565b600061073f7f000000000000000000000000000000000000000000000000000000000000000083610e22565b600084815260036020526040902090915061079273ffffffffffffffffffffffffffffffffffffffff7f000000000000000000000000000000000000000000000000000000000000000016333085610bbb565b60008481526005602090815260408083203384529091528120549081900361085357600085815260046020908152604080832081518083018352338082528185018a81528354600180820186558589528789209451600290920290940180547fffffffffffffffffffffffff00000000000000000000000000000000000000001673ffffffffffffffffffffffffffffffffffffffff90921691909117815590519201919091558985529054600584528285209185529252909120556108a4565b6000858152600460205260409020849061086e600184610d8a565b8154811061087e5761087e610de0565b9060005260206000209060020201600101600082825461089e9190610e0f565b90915550505b838260010160008282546108b89190610e0f565b90915550508154839083906000906108d1908490610e0f565b90915550506040805185815260208101859052339187917fef266bb11bf4b58aa8562ab8c8746e3b84a521780a2c57ca09d87bae13f5eb09910160405180910390a350505061091f60018055565b5050565b600081815260056020908152604080832073ffffffffffffffffffffffffffffffffffffffff861684529091528120548082036109645760009150506109c3565b6000838152600460205260409020548111156109845760009150506109c3565b600083815260046020526040902061099d600183610d8a565b815481106109ad576109ad610de0565b9060005260206000209060020201600101549150505b92915050565b6109d1610a2a565b73ffffffffffffffffffffffffffffffffffffffff8116610a21576040517f1e4fbdf7000000000000000000000000000000000000000000000000000000008152600060048201526024016103ed565b61068a81610b46565b60005473ffffffffffffffffffffffffffffffffffffffff16331461069f576040517f118cdaa70000000000000000000000000000000000000000000000000000000081523360048201526024016103ed565b600260015403610ab9576040517f3ee5aeb500000000000000000000000000000000000000000000000000000000815260040160405180910390fd5b6002600155565b60405173ffffffffffffffffffffffffffffffffffffffff838116602483015260448201839052610b4191859182169063a9059cbb906064015b604051602081830303815290604052915060e01b6020820180517bffffffffffffffffffffffffffffffffffffffffffffffffffffffff8381831617835250505050610c07565b505050565b6000805473ffffffffffffffffffffffffffffffffffffffff8381167fffffffffffffffffffffffff0000000000000000000000000000000000000000831681178455604051919092169283917f8be0079c531659141344cd1fd0a4f28419497f9722a3daafe3b4186f6b6457e09190a35050565b60405173ffffffffffffffffffffffffffffffffffffffff8481166024830152838116604483015260648201839052610c019186918216906323b872dd90608401610afa565b50505050565b600080602060008451602086016000885af180610c2a576040513d6000823e3d81fd5b50506000513d91508115610c42578060011415610c5c565b73ffffffffffffffffffffffffffffffffffffffff84163b155b15610c01576040517f5274afe700000000000000000000000000000000000000000000000000000000815273ffffffffffffffffffffffffffffffffffffffff851660048201526024016103ed565b803573ffffffffffffffffffffffffffffffffffffffff81168114610ccf57600080fd5b919050565b600060208284031215610ce657600080fd5b610cef82610cab565b9392505050565b600060208284031215610d0857600080fd5b5035919050565b60008060408385031215610d2257600080fd5b50508035926020909101359150565b60008060408385031215610d4457600080fd5b610d4d83610cab565b946020939093013593505050565b7f4e487b7100000000000000000000000000000000000000000000000000000000600052601160045260246000fd5b818103818111156109c3576109c3610d5b565b7f4e487b7100000000000000000000000000000000000000000000000000000000600052601260045260246000fd5b600082610ddb57610ddb610d9d565b500690565b7f4e487b7100000000000000000000000000000000000000000000000000000000600052603260045260246000fd5b808201808211156109c3576109c3610d5b565b80820281158282048414176109c3576109c3610d5b565b600082610e4857610e48610d9d565b50049056fea2646970667358221220a29010eed6e42b401f129e6e530d93560a911198c8409b40579b736bf8eee83f64736f6c63430008180033",
  "linkReferences": {},
  "deployedLinkReferences": {}
}