{
  "_format": "hh-sol-artifact-1",
  "contractName": "UrukLottery",
  "sourceName": "contracts/UrukLottery.sol",
  "abi": [
    {
      "inputs": [
        {
          "internalType": "address",
          "name": "_uruk",
          "type": "address"
        },
        {
          "internalType": "address",
          "name": "_devWallet",
          "type": "address"
        },
        {
          "internalType": "uint8",
          "name": "_decimals",
          "type": "uint8"
        }
      ],
      "stateMutability": "nonpayable",
      "type": "constructor"
    },
    {
      "inputs": [
        {
          "internalType": "address",
          "name": "owner",
          "type": "address"
        }
      ],
      "name": "OwnableInvalidOwner",
      "type": "error"
    },
    {
      "inputs": [
        {
          "internalType": "address",
          "name": "account",
          "type": "address"
        }
      ],
      "name": "OwnableUnauthorizedAccount",
      "type": "error"
    },
    {
      "inputs": [],
      "name": "ReentrancyGuardReentrantCall",
      "type": "error"
    },
    {
      "inputs": [
        {
          "internalType": "address",
          "name": "token",
          "type": "address"
        }
      ],
      "name": "SafeERC20FailedOperation",
      "type": "error"
    },
    {
      "anonymous": false,
      "inputs": [
        {
          "indexed": true,
          "internalType": "address",
          "name": "previousOwner",
          "type": "address"
        },
        {
          "indexed": true,
          "internalType": "address",
          "name": "newOwner",
          "type": "address"
        }
      ],
      "name": "OwnershipTransferred",
      "type": "event"
    },
    {
      "anonymous": false,
      "inputs": [
        {
          "indexed": true,
          "internalType": "uint256",
          "name": "rid",
          "type": "uint256"
        },
        {
          "indexed": true,
          "internalType": "address",
          "name": "player",
          "type": "address"
        },
        {
          "indexed": false,
          "internalType": "uint256",
          "name": "tickets",
          "type": "uint256"
        },
        {
          "indexed": false,
          "internalType": "uint256",
          "name": "paid",
          "type": "uint256"
        }
      ],
      "name": "TicketPurchased",
      "type": "event"
    },
    {
      "anonymous": false,
      "inputs": [
        {
          "indexed": true,
          "internalType": "uint256",
          "name": "rid",
          "type": "uint256"
        },
        {
          "indexed": true,
          "internalType": "address",
          "name": "winner",
          "type": "address"
        },
        {
          "indexed": false,
          "internalType": "uint256",
          "name": "prize",
          "type": "uint256"
        },
        {
          "indexed": false,
          "internalType": "uint256",
          "name": "devFee",
          "type": "uint256"
        }
      ],
      "name": "WinnerSelected",
      "type": "event"
    },
    {
      "inputs": [],
      "name": "BPS_DENOM",
      "outputs": [
        {
          "internalType": "uint256",
          "name": "",
          "type": "uint256"
        }
      ],
      "stateMutability": "view",
      "type": "function"
    },
    {
      "inputs": [],
      "name": "DEV_FEE_BPS",
      "outputs": [
        {
          "internalType": "uint256",
          "name": "",
          "type": "uint256"
        }
      ],
      "stateMutability": "view",
      "type": "function"
    },
    {
      "inputs": [],
      "name": "ROUND_SPAN",
      "outputs": [
        {
          "internalType": "uint256",
          "name": "",
          "type": "uint256"
        }
      ],
      "stateMutability": "view",
      "type": "function"
    },
    {
      "inputs": [],
      "name": "activeRoundId",
      "outputs": [
        {
          "internalType": "uint256",
          "name": "",
          "type": "uint256"
        }
      ],
      "stateMutability": "view",
      "type": "function"
    },
    {
      "inputs": [
        {
          "internalType": "uint256",
          "name": "ticketCount",
          "type": "uint256"
        }
      ],
      "name": "buyTickets",
      "outputs": [],
      "stateMutability": "nonpayable",
      "type": "function"
    },
    {
      "inputs": [],
      "name": "decimals",
      "outputs": [
        {
          "internalType": "uint8",
          "name": "",
          "type": "uint8"
        }
      ],
      "stateMutability": "view",
      "type": "function"
    },
    {
      "inputs": [],
      "name": "devWallet",
      "outputs": [
        {
          "internalType": "address",
          "name": "",
          "type": "address"
        }
      ],
      "stateMutability": "view",
      "type": "function"
    },
    {
      "inputs": [],
      "name": "draw",
      "outputs": [],
      "stateMutability": "nonpayable",
      "type": "function"
    },
    {
      "inputs": [
        {
          "internalType": "uint256",
          "name": "roundId",
          "type": "uint256"
        },
        {
          "internalType": "uint256",
          "name": "index",
          "type": "uint256"
        }
      ],
      "name": "getParticipantDetails",
      "outputs": [
        {
          "internalType": "address",
          "name": "participantAddress",
          "type": "address"
        },
        {
          "internalType": "uint256",
          "name": "ticketCount",
          "type": "uint256"
        }
      ],
      "stateMutability": "view",
      "type": "function"
    },
    {
      "inputs": [
        {
          "internalType": "uint256",
          "name": "roundId",
          "type": "uint256"
        }
      ],
      "name": "getPlistLength",
      "outputs": [
        {
          "internalType": "uint256",
          "name": "",
          "type": "uint256"
        }
      ],
      "stateMutability": "view",
      "type": "function"
    },
    {
      "inputs": [
        {
          "internalType": "address",
          "name": "user",
          "type": "address"
        },
        {
          "internalType": "uint256",
          "name": "roundId",
          "type": "uint256"
        }
      ],
      "name": "getTicketsOf",
      "outputs": [
        {
          "internalType": "uint256",
          "name": "",
          "type": "uint256"
        }
      ],
      "stateMutability": "view",
      "type": "function"
    },
    {
      "inputs": [],
      "name": "owner",
      "outputs": [
        {
          "internalType": "address",
          "name": "",
          "type": "address"
        }
      ],
      "stateMutability": "view",
      "type": "function"
    },
    {
      "inputs": [
        {
          "internalType": "uint256",
          "name": "",
          "type": "uint256"
        },
        {
          "internalType": "uint256",
          "name": "",
          "type": "uint256"
        }
      ],
      "name": "plist",
      "outputs": [
        {
          "internalType": "address",
          "name": "addr",
          "type": "address"
        },
        {
          "internalType": "uint256",
          "name": "tickets",
          "type": "uint256"
        }
      ],
      "stateMutability": "view",
      "type": "function"
    },
    {
      "inputs": [],
      "name": "renounceOwnership",
      "outputs": [],
      "stateMutability": "nonpayable",
      "type": "function"
    },
    {
      "inputs": [
        {
          "internalType": "uint256",
          "name": "r",
          "type": "uint256"
        }
      ],
      "name": "roundEnd",
      "outputs": [
        {
          "internalType": "uint256",
          "name": "",
          "type": "uint256"
        }
      ],
      "stateMutability": "pure",
      "type": "function"
    },
    {
      "inputs": [
        {
          "internalType": "uint256",
          "name": "",
          "type": "uint256"
        }
      ],
      "name": "rounds",
      "outputs": [
        {
          "internalType": "uint256",
          "name": "pot",
          "type": "uint256"
        },
        {
          "internalType": "uint256",
          "name": "ticketCount",
          "type": "uint256"
        },
        {
          "internalType": "bool",
          "name": "completed",
          "type": "bool"
        },
        {
          "internalType": "address",
          "name": "winner",
          "type": "address"
        }
      ],
      "stateMutability": "view",
      "type": "function"
    },
    {
      "inputs": [
        {
          "internalType": "address",
          "name": "w",
          "type": "address"
        }
      ],
      "name": "setDevWallet",
      "outputs": [],
      "stateMutability": "nonpayable",
      "type": "function"
    },
    {
      "inputs": [],
      "name": "ticketUnit",
      "outputs": [
        {
          "internalType": "uint256",
          "name": "",
          "type": "uint256"
        }
      ],
      "stateMutability": "view",
      "type": "function"
    },
    {
      "inputs": [
        {
          "internalType": "address",
          "name": "newOwner",
          "type": "address"
        }
      ],
      "name": "transferOwnership",
      "outputs": [],
      "stateMutability": "nonpayable",
      "type": "function"
    },
    {
      "inputs": [],
      "name": "uruk",
      "outputs": [
        {
          "internalType": "contract IERC20Metadata",
          "name": "",
          "type": "address"
        }
      ],
      "stateMutability": "view",
      "type": "function"
    }
  ],
  "bytecode": "0x60e06040523480156200001157600080fd5b50604051620014673803806200146783398101604081905262000034916200017d565b33806200005c57604051631e4fbdf760e01b8152600060048201526024015b60405180910390fd5b620000678162000110565b50600180556001600160a01b038316158015906200008d57506001600160a01b03821615155b620000c45760405162461bcd60e51b815260040162000053906020808252600490820152637a65726f60e01b604082015260600190565b6001600160a01b03831660805260ff811660c052620000e581600a620002e5565b60a05250600280546001600160a01b0319166001600160a01b039290921691909117905550620002fd565b600080546001600160a01b038381166001600160a01b0319831681178455604051919092169283917f8be0079c531659141344cd1fd0a4f28419497f9722a3daafe3b4186f6b6457e09190a35050565b80516001600160a01b03811681146200017857600080fd5b919050565b6000806000606084860312156200019357600080fd5b6200019e8462000160565b9250620001ae6020850162000160565b9150604084015160ff81168114620001c557600080fd5b809150509250925092565b634e487b7160e01b600052601160045260246000fd5b600181815b80851115620002275781600019048211156200020b576200020b620001d0565b808516156200021957918102915b93841c9390800290620001eb565b509250929050565b6000826200024057506001620002df565b816200024f57506000620002df565b8160018114620002685760028114620002735762000293565b6001915050620002df565b60ff841115620002875762000287620001d0565b50506001821b620002df565b5060208310610133831016604e8410600b8410161715620002b8575081810a620002df565b620002c48383620001e6565b8060001904821115620002db57620002db620001d0565b0290505b92915050565b6000620002f660ff8416836200022f565b9392505050565b60805160a05160c05161111e6200034960003960006101c10152600081816103c4015261084001526000818161038201528181610678015281816106bd015261089c015261111e6000f3fe608060405234801561001057600080fd5b506004361061016c5760003560e01c8063879751d9116100cd578063a31ae82211610081578063d86005f611610066578063d86005f6146103b7578063dab24d31146103bf578063f2fde38b146103e657600080fd5b8063a31ae8221461037d578063c8183ea4146103a457600080fd5b80638da5cb5b116100b25780638da5cb5b1461030b5780638ea5220f1461034a5780639ef6c17f1461036a57600080fd5b8063879751d9146102605780638c65c81f1461028057600080fd5b8063365f7ebd116101245780636637e38c116101095780636637e38c1461023c578063715018a6146102455780637543246b1461024d57600080fd5b8063365f7ebd146101f557806351e671c91461023457600080fd5b80631f53ac02116101555780631f53ac02146101965780632f366637146101a9578063313ce567146101bc57600080fd5b806301e6f8eb146101715780630eecae211461018c575b600080fd5b61017960b481565b6040519081526020015b60405180910390f35b6101946103f9565b005b6101946101a4366004610f6f565b610758565b6101946101b7366004610f91565b6107c7565b6101e37f000000000000000000000000000000000000000000000000000000000000000081565b60405160ff9091168152602001610183565b610208610203366004610faa565b610a55565b6040805173ffffffffffffffffffffffffffffffffffffffff9093168352602083019190915201610183565b61017960fa81565b61017961271081565b610194610aa8565b61020861025b366004610faa565b610aba565b61017961026e366004610f91565b60009081526004602052604090205490565b6102cf61028e366004610f91565b60036020526000908152604090208054600182015460029092015490919060ff811690610100900473ffffffffffffffffffffffffffffffffffffffff1684565b6040805194855260208501939093529015159183019190915273ffffffffffffffffffffffffffffffffffffffff166060820152608001610183565b60005473ffffffffffffffffffffffffffffffffffffffff165b60405173ffffffffffffffffffffffffffffffffffffffff9091168152602001610183565b6002546103259073ffffffffffffffffffffffffffffffffffffffff1681565b610179610378366004610f91565b610b8e565b6103257f000000000000000000000000000000000000000000000000000000000000000081565b6101796103b2366004610fcc565b610bad565b610179610c52565b6101797f000000000000000000000000000000000000000000000000000000000000000081565b6101946103f4366004610f6f565b610c64565b610401610cc5565b6000600161040d610c52565b6104179190611025565b600081815260036020526040902060028101549192509060ff16158015610446575061044282610b8e565b4210155b8015610456575060008160010154115b6104c1576040517f08c379a000000000000000000000000000000000000000000000000000000000815260206004820152600560248201527f737461746500000000000000000000000000000000000000000000000000000060448201526064015b60405180910390fd5b600081600101546001436104d59190611025565b83546040805192406020840152820186905260608083019190915230901b7fffffffffffffffffffffffffffffffffffffffff0000000000000000000000001660808201526094016040516020818303038152906040528051906020012060001c6105409190611067565b6000848152600460205260408120919250908190815b81548110156105e0578181815481106105715761057161107b565b9060005260206000209060020201600101548461058e91906110aa565b9350838510156105d8578181815481106105aa576105aa61107b565b600091825260209091206002909102015473ffffffffffffffffffffffffffffffffffffffff1692506105e0565b600101610556565b5060028501805473ffffffffffffffffffffffffffffffffffffffff8416610100027fffffffffffffffffffffff0000000000000000000000000000000000000000009091161760011790558454600090612710906106419060fa906110bd565b61064b91906110d4565b905061069f838288600001546106619190611025565b73ffffffffffffffffffffffffffffffffffffffff7f0000000000000000000000000000000000000000000000000000000000000000169190610d08565b6002546106e69073ffffffffffffffffffffffffffffffffffffffff7f00000000000000000000000000000000000000000000000000000000000000008116911683610d08565b8273ffffffffffffffffffffffffffffffffffffffff16877f3d210d5ae36955ded2bdf69bd956eb075b7fd07362288c7df1797cd8eb1199bf83896000015461072f9190611025565b60408051918252602082018690520160405180910390a35050505050505061075660018055565b565b610760610d8e565b73ffffffffffffffffffffffffffffffffffffffff811661078057600080fd5b600280547fffffffffffffffffffffffff00000000000000000000000000000000000000001673ffffffffffffffffffffffffffffffffffffffff92909216919091179055565b6107cf610cc5565b60008111610839576040517f08c379a000000000000000000000000000000000000000000000000000000000815260206004820152600860248201527f7469636b6574203000000000000000000000000000000000000000000000000060448201526064016104b8565b60006108657f0000000000000000000000000000000000000000000000000000000000000000836110bd565b90506000610871610c52565b60008181526003602052604090209091506108c473ffffffffffffffffffffffffffffffffffffffff7f000000000000000000000000000000000000000000000000000000000000000016333086610de1565b60008281526005602090815260408083203384529091528120549081900361098557600083815260046020908152604080832081518083018352338082528185018b81528354600180820186558589528789209451600290920290940180547fffffffffffffffffffffffff00000000000000000000000000000000000000001673ffffffffffffffffffffffffffffffffffffffff90921691909117815590519201919091558785529054600584528285209185529252909120556109d6565b600083815260046020526040902085906109a0600184611025565b815481106109b0576109b061107b565b906000526020600020906002020160010160008282546109d091906110aa565b90915550505b848260010160008282546109ea91906110aa565b9091555050815484908390600090610a039084906110aa565b90915550506040805186815260208101869052339185917fef266bb11bf4b58aa8562ab8c8746e3b84a521780a2c57ca09d87bae13f5eb09910160405180910390a350505050610a5260018055565b50565b60046020528160005260406000208181548110610a7157600080fd5b60009182526020909120600290910201805460019091015473ffffffffffffffffffffffffffffffffffffffff9091169250905082565b610ab0610d8e565b6107566000610e2d565b60008281526004602052604081205481908310610b33576040517f08c379a000000000000000000000000000000000000000000000000000000000815260206004820152601360248201527f496e646578206f7574206f6620626f756e64730000000000000000000000000060448201526064016104b8565b6000848152600460205260408120805485908110610b5357610b5361107b565b60009182526020909120600290910201805460019091015473ffffffffffffffffffffffffffffffffffffffff909116969095509350505050565b600060b4610b9d8360016110aa565b610ba791906110bd565b92915050565b600081815260056020908152604080832073ffffffffffffffffffffffffffffffffffffffff86168452909152812054808203610bee576000915050610ba7565b600083815260046020526040902054811115610c0e576000915050610ba7565b6000838152600460205260409020610c27600183611025565b81548110610c3757610c3761107b565b90600052602060002090600202016001015491505092915050565b6000610c5f60b4426110d4565b905090565b610c6c610d8e565b73ffffffffffffffffffffffffffffffffffffffff8116610cbc576040517f1e4fbdf7000000000000000000000000000000000000000000000000000000008152600060048201526024016104b8565b610a5281610e2d565b600260015403610d01576040517f3ee5aeb500000000000000000000000000000000000000000000000000000000815260040160405180910390fd5b6002600155565b60405173ffffffffffffffffffffffffffffffffffffffff838116602483015260448201839052610d8991859182169063a9059cbb906064015b604051602081830303815290604052915060e01b6020820180517bffffffffffffffffffffffffffffffffffffffffffffffffffffffff8381831617835250505050610ea2565b505050565b60005473ffffffffffffffffffffffffffffffffffffffff163314610756576040517f118cdaa70000000000000000000000000000000000000000000000000000000081523360048201526024016104b8565b60405173ffffffffffffffffffffffffffffffffffffffff8481166024830152838116604483015260648201839052610e279186918216906323b872dd90608401610d42565b50505050565b6000805473ffffffffffffffffffffffffffffffffffffffff8381167fffffffffffffffffffffffff0000000000000000000000000000000000000000831681178455604051919092169283917f8be0079c531659141344cd1fd0a4f28419497f9722a3daafe3b4186f6b6457e09190a35050565b600080602060008451602086016000885af180610ec5576040513d6000823e3d81fd5b50506000513d91508115610edd578060011415610ef7565b73ffffffffffffffffffffffffffffffffffffffff84163b155b15610e27576040517f5274afe700000000000000000000000000000000000000000000000000000000815273ffffffffffffffffffffffffffffffffffffffff851660048201526024016104b8565b803573ffffffffffffffffffffffffffffffffffffffff81168114610f6a57600080fd5b919050565b600060208284031215610f8157600080fd5b610f8a82610f46565b9392505050565b600060208284031215610fa357600080fd5b5035919050565b60008060408385031215610fbd57600080fd5b50508035926020909101359150565b60008060408385031215610fdf57600080fd5b610fe883610f46565b946020939093013593505050565b7f4e487b7100000000000000000000000000000000000000000000000000000000600052601160045260246000fd5b81810381811115610ba757610ba7610ff6565b7f4e487b7100000000000000000000000000000000000000000000000000000000600052601260045260246000fd5b60008261107657611076611038565b500690565b7f4e487b7100000000000000000000000000000000000000000000000000000000600052603260045260246000fd5b80820180821115610ba757610ba7610ff6565b8082028115828204841417610ba757610ba7610ff6565b6000826110e3576110e3611038565b50049056fea2646970667358221220417845bf5c0d9559e71db7c1de57bd0935ece3d4ffaccb83ff4986197089fe4964736f6c63430008180033",
  "linkReferences": {},
  "deployedLinkReferences": {}
}